:020000040800F2
:10000000A804002001010008090100080B010008F4
:100010000D0100080F010008110100080000000098
:1000200000000000000000000000000013010008B4
:1000300015010008000000001701000881150008E4
:100040001B0100081B0100081B0100081B01000820
:100050001B0100081B0100081B0100081B01000810
:100060001B0100081B0100081B0100081B01000800
:100070001B0100081B010008490100081B010008C2
:100080001B0100081B0100081B0100081B010008E0
:100090001B0100081B0100081B0100081B010008D0
:1000A0001B0100081B0100081B0100081B010008C0
:1000B0001B0100081B0100081B0100081B010008B0
:1000C0001B0100081B0100081B0100081B010008A0
:1000D0001B010008711800081B0100081B01000823
:1000E0001B0100081B0100081B010008DFF80CD0F1
:1000F00000F018F8004800479D180008A8040020E8
:100100000648804706480047FEE7FEE7FEE7FEE7B1
:10011000FEE7FEE7FEE7FEE7FEE7FEE7E115000883
:10012000ED000008064C074D06E0E06840F00103D2
:1001300094E8070098471034AC42F6D3FFF7DAFF93
:10014000F018000810190008014800F013B800006A
:100150007000002010B5046863604368102B0368CA
:1001600003D099600068C26010BD9A600068C160E9
:1001700010BD00002DE9F05FDFF860820446D8F87A
:100180000020DFF858B2954D944E944F0068DFF888
:100190004C92DFF848A20BF1080B1C35303644377F
:1001A0004FF400614FF4004C4FF4002E09F1580950
:1001B0000AF16C0A584501D1082316E0A84201D182
:1001C000802312E0B04201D10B460EE0B84201D1CB
:1001D00063460AE0484501D1734606E0504502D126
:1001E0004FF4000301E04FF000631A4231D002687F
:1001F000D24312072DD4026822F008020260206860
:10020000584501D1082114E0A84201D1802110E015
:10021000B0420ED0B84201D161460AE0484501D152
:10022000714606E0504502D14FF4000101E04FF065
:100230000061C8F80410606B40F0010060630420A6
:1002400084F82100002084F82000216B09B12046A9
:1002500088476248D0F800C04FF4806120680A01E6
:100260000B044FF4802E584502D14FF0040816E0DD
:10027000A84202D14FF0400811E0B04201D18846B7
:100280000DE0B84201D1904609E0484501D1F04661
:1002900005E0504502D14FF4800800E098461CEA82
:1002A000080F33D0D0F800C06FEA0C0C5FEA4C7C2A
:1002B0002CD4D0F800C05FEA8C6C05D4D0F800C014
:1002C0002CF0040CC0F800C02068584501D104216E
:1002D00013E0A84201D140210FE0B0420DD0B84256
:1002E00001D1114609E0484501D1714605E050456C
:1002F00002D14FF4800100E01946384841601120D6
:1003000084F82100E16A09B120468847334AD2F8CF
:1003100000C05B46206851154FF4005B4FF4003E6F
:10032000984202D14FF0020817E0A84202D14FF0E4
:10033000200812E0B04201D188460EE0B84201D157
:10034000D8460AE0484501D1F04606E0504502D1C2
:100350004FF4001801E04FF000781CEA080F3BD082
:10036000D0F800C06FEA0C0C5FEA8C7C34D4D0F873
:1003700000C05FEA8C6C05D4D0F800C02CF0020CF1
:10038000C0F800C02068984201D1022114E0A842C0
:1003900001D1202110E0B0420ED0B84201D159461F
:1003A0000AE0484501D1714606E0504502D14FF4BC
:1003B000001101E04FF000715160606B606301203B
:1003C00084F82100002084F82000A16A002903D0CD
:1003D0002046BDE8F05F0847BDE8F09F00000240FE
:1003E00070B520B190F82110002411B103E0012074
:1003F00070BD80F82040022180F8211003681A683F
:1004000043F6F0718A43D0E901152943D0E9035638
:10041000354329434569294385692943C5692943EA
:10042000114319604463012180F82110002070BD40
:1004300070B5044690F82000012823D0012084F8EC
:100440002000022084F821002068056825F00105BD
:1004500005602046FFF77EFE2068016841F002013A
:1004600001602068016841F00401016020680168B2
:1004700041F0080101602068016841F0010101605C
:10048000002070BD022070BD31B500F0EBF80446CD
:1004900000F0E8F80099001B8842F9D338BD00004D
:1004A0002DE9F84FDFF890A100220AF1040B144661
:1004B00001274FF00F090BF1040E00BF0B6807FA7C
:1004C00004F52B40AB4274D1DFF870C14E68A6EB47
:1004D0000C0866452BD00DDC032E34D005DC36B37A
:1004E000012E19D0022E2FD11BE0112E16D0122E64
:1004F0002AD119E0B8F5881F19D006DCB8F5803F7D
:1005000015D0B8F5801F1FD111E0B8F5001F0ED02F
:10051000B8F5041F18D10AE0CA6815E0CA68121DB0
:1005200012E0CA6808320FE0CA680C320CE08A6830
:100530002AB1012A4FF0080203D0456104E00422E9
:1005400002E0056100E00022FF2B01D8064601E031
:1005500000F104064FEA840501D9A5F12005D6F87B
:1005600000C009FA05F82CEA080C02FA05F54CEA75
:10057000050CC6F800C04D68ED0057D5304DAE698A
:1005800046F00106AE61AD6924F0030605F00105F1
:1005900000952C4D06EB050CDCF80850A6074FEA39
:1005A000167809FA08F6B543274EB04202D1002664
:1005B00010E03BE0254EB04201D101260AE0244E76
:1005C000B04201D1022605E0224EB04201D10326FD
:1005D00000E0042606FA08F62E43CCF808604D68C1
:1005E000DAF80060ED03554601D51E4300E09E4356
:1005F0002E604D68DBF80060AD035D4601D51E43FB
:1006000000E09E432E604D68DEF80060ED02754606
:1006100001D51E4300E09E432E604D68AD020E4D95
:100620002E6801D51E4300E09E432E60641C102CF2
:10063000FFF444AFBDE8F88F000401400000111042
:10064000001002400000014000080140000C014081
:1006500000100140001401400C040140C2684A40EF
:10066000C260704701480068704700001400002015
:1006700002480168491C0160704700001400002016
:10068000074810B5016841F010010160032000F037
:1006900065F8002000F006F800F016F8002010BD04
:1006A0000020024010B5044600F0AEF94FF47A7114
:1006B000B0FBF1F000F0A4FD00222146501E00F036
:1006C0002DF8002010BD00000C4808B5816941F0EC
:1006D00001018161806900F001000090032000F0B9
:1006E0003DF800221146501E00F018F804484168F9
:1006F00021F0E06141F08061416008BD00100240DE
:100700000000014000F01F020121914040098000DB
:1007100000F1E020C0F8001170470000F0B40E4B6B
:100720001B680C46C3F30223C3F10705042D00D94F
:100730000425191D072901D2002300E0DB1E012634
:1007400006FA05F1491E214099409E40761E16404A
:100750003143F0BC00F004BF0CED00E0064900F0AE
:10076000070208684FF6FF03184040EA0220034AD8
:1007700010430860704700000CED00E00000FA052F
:100780002DE9F047DFF8789205460E46D9F80000CB
:10079000022300F00707012041044206994C41F270
:1007A0008838B74271D2D9F800C02CF0070C4CEA57
:1007B000060CC9F800C0D9F8007007F00707B74267
:1007C0006FD12E78B60705D56668AF6826F0F006BB
:1007D0003E4366602E78F60756D06E68012E0BD029
:1007E000022E1ED093FAA3F1B1FA81F141F020015B
:1007F000490924D0216823E091FAA1F2B2FA82F2E9
:1008000042F02002520901D0226800E0626A91FAA7
:10081000A1F1B1FA81F101F01F018840024240D0FC
:1008200017E092FAA2F1B1FA81F141F020014909F1
:1008300001D0216800E0616A92FAA2F202E0616AE6
:1008400093FAA3F2B2FA82F202F01F029040014240
:1008500027D0606820F0030030436060FFF702FF9C
:1008600006466868012809D00228474613D01EE0D2
:10087000FFF7F8FE801BB84201D992E04746606856
:10088000C0F381000128F3D1A1E015E0FFF7EAFEF3
:10089000801BB84273D86068C0F381000228F5D18C
:1008A00095E092E0FFF7DEFE801BB84279D86068E1
:1008B00010F00C0FF6D18AE02F78BF0707D56768D4
:1008C000D5F808C027F0F00747EA0C0767602F78D3
:1008D000FF076DD06F68012F0BD0022F1ED093FA47
:1008E000A3F1B1FA81F141F02001490924D0216836
:1008F00023E091FAA1F2B2FA82F242F02002520908
:1009000001D0226800E0626A91FAA1F1B1FA81F1A6
:1009100001F01F018840024257D017E092FAA2F17D
:10092000B1FA81F141F02001490901D0216800E0CC
:10093000616A92FAA2F202E0616A93FAA3F2B2FA51
:1009400082F202F01F02904001423ED0606820F027
:10095000030038436060FFF785FE0746686801289A
:1009600007D0022811D01FE0FFF77CFEC11B4145D4
:1009700017D86068C0F381000128F5D118E010E0B5
:10098000FFF770FEC11B41450BD86068C0F38100C2
:100990000228F5D10CE000BFFFF764FEC11B414502
:1009A00002D90320BDE8F087606810F00C0FF3D186
:1009B000D9F8001021F007013143C9F80010D9F827
:1009C000000000F00700B04201D00120EAE72878DB
:1009D000400705D56068E96820F4E060084360607E
:1009E0002878000706D56068296920F4605040EA3D
:1009F000C10060600020FFF755FE0020D2E7000034
:100A0000002002400010024010B500F043F80849F1
:100A10004968F02292FAA2F201F0F001B2FA82F2F1
:100A2000D140044A515CC8400349086010BD000031
:100A300000100240E01800080000002010B5FFF789
:100A4000E3FF074949684FF4E06292FAA2F201F429
:100A5000E061B2FA82F2D140024A515CC84010BD56
:100A600000100240E018000810B5FFF7CDFF07495D
:100A700049684FF4605292FAA2F201F46051B2FA5E
:100A800082F2D140024A515CC84010BD00100240C1
:100A9000E018000810B519A385B00FCB8DE80F0042
:100AA0001AA01B4B006804905A681A4802F00C0107
:100AB00004291DD008291BD14FF4701494FAA4F412
:100AC00002F47011B4FA84F4E140D2031DF801106D
:100AD00010D55A684FF4003393FAA3F302F40032AE
:100AE000B3FA83F3DA4004AB9A5CB0FBF2F048430C
:100AF00005B010BD08484843FAE7000002030405AA
:100B0000060708090A0B0C0D0E0F10100102000059
:100B10000010024000127A0000093D002DE9F84F54
:100B200005460078DFF85C95C0074FF0010429D036
:100B3000D9F804004E46C0F381006704012807D0AD
:100B40007068C0F3810002281DD17068C0031AD5F7
:100B500097FAA7F0B0FA80F040F02000400901D0E9
:100B6000306800E0706A97FAA7F1B1FA81F101F0FC
:100B70001F0104FA01F1084204D06868012801D07D
:100B8000052879D184E0306820F480303060306806
:100B900020F480203060FFF765FD824641F28838FE
:100BA00006E000BFFFF75EFDA0EB0A0141457DD8DE
:100BB00097FAA7F0B0FA80F040F02000400901D089
:100BC000306800E0706A97FAA7F1B1FA81F101F09C
:100BD0001F0104FA01F10842E4D1306820F48030AA
:100BE0003060686801280BD0052811D0306820F4E7
:100BF00080203060686858B3FFF734FD824611E00A
:100C0000306820F480203060306840F48030F0E7B5
:100C10000520B070EEE700BFFFF724FDA0EB0A014E
:100C20004145C4D897FAA7F0B0FA80F040F0200010
:100C3000400901D0306800E0706A97FAA7F1B1FA74
:100C400081F101F01F0104FA01F10842E4D01FE034
:100C5000FFF708FD824605E0FFF704FDA0EB0A015F
:100C60004145A4D897FAA7F0B0FA80F040F02000F0
:100C7000400902D0306801E0BAE0706A97FAA7F143
:100C8000B1FA81F101F01F0104FA01F10842E3D148
:100C90002878FD4F80074FF0000A4FF0020634D548
:100CA000D9F80410484611F00C0F00E0B0E108D06C
:100CB0004168C846C1F38101022927D14168C903AF
:100CC00024D496FAA6F1B1FA81F141F02001490944
:100CD00001D0016800E0416A96FAA6F2B2FA82F207
:100CE00002F01F0204FA02F2114202D0296901291E
:100CF0007ED10168F82321F0F80293FAA3F3696921
:100D0000B3FA83F399400A4302604FE0286938B38D
:100D100094FAA4F0B0FA80F047F82040FFF7A2FC64
:100D2000834605E0FFF79EFCA0EB0B00642898D8F3
:100D300096FAA6F0B0FA80F040F020004009404654
:100D400001D0006800E0406A96FAA6F1B1FA81F19C
:100D500001F01F0104FA01F10842E3D04046C8E760
:100D600094FAA4F1B1FA81F147F821A0FFF77AFCD7
:100D7000834605E0FFF776FCA0EB0B006428D6D88D
:100D800096FAA6F0B0FA80F040F020004009404604
:100D900001D0006800E0406A96FAA6F1B1FA81F14C
:100DA00001F01F0104FA01F10842E3D1287800079D
:100DB00073D5A869D8B394FAA4F0B0FA80F007EB21
:100DC0008000C0F88044FFF74DFC804606E000BF7D
:100DD000FFF748FCA0EB08006428A8D896FAA6F014
:100DE000B0FA80F040F06000B4EB501F04D100E096
:100DF000D7E1D9F800000CE096FAA6F0B0FA80F03E
:100E000040F06000B6EB501F484601D1006A00E098
:100E1000406A96FAA6F1B1FA81F101F01F0204FAD4
:100E200002F10842D4D00120FFF72EFB35E0FFE7A6
:100E300094FAA4F1B1FA81F107EB8101C1F880A421
:100E4000FFF710FC804605E0FFF70CFCA0EB080064
:100E5000642894D896FAA6F0B0FA80F040F06000CA
:100E6000B4EB501F02D1D9F800000CE096FAA6F0BE
:100E7000B0FA80F040F06000B6EB501F484601D158
:100E8000006A00E0406A96FAA6F1B1FA81F101F039
:100E90001F0204FA02F10842D6D1287840077DD516
:100EA000D9F81C1041F08051C9F81C10D9F81C0069
:100EB000DFF8D8B100F080500090DBF8001041F46A
:100EC0008071CBF80010FFF7CDFB804606E000BF35
:100ED000FFF7C8FBA0EB08006428BAD8DBF80000D5
:100EE000C005F5D594FAA4F1B1FA81F107EB8101BF
:100EF000C1F800A44FF0040B9BFAABF1B1FA81F1F9
:100F000007EB8101C1F800A4FFF7ACFB009007E0FC
:100F1000FFF7A8FB0099411A41F28830814277D847
:100F200096FAA6F0B0FA80F040F04000B4EB501F03
:100F300002D1D9F800000CE096FAA6F0B0FA80F0E1
:100F400040F04000B6EB501F484601D1006A00E077
:100F5000406A96FAA6F1B1FA81F101F01F0104FA94
:100F600001F1A0460842D3D1E868E0B1012850461B
:100F70002AD094FAA4F1B1FA81F107EB8101C1F80A
:100F800000049BFAABF000BFB0FA80F007EB8000E2
:100F9000C0F80044E868012821D000E083E0FFF7B2
:100FA00061FB834656E094FAA4F1B1FA81F107EBB4
:100FB0008101C1F800A49BFAABF1B1FA81F107EB12
:100FC0008101C1F800A4E5E79BFAABF1B1FA81F128
:100FD00007EB8101C1F8000494FAA4F0D4E7FFF70D
:100FE00041FB834608E000BFFFF73CFBA0EB0B0191
:100FF00041F2883081420BD896FAA6F0B0FA80F020
:1010000040F04000B8EB501F03D1D9F800000DE0CC
:101010009DE096FAA6F0B0FA80F040F04000B6EB02
:10102000501F484601D1006A00E0406A96FAA6F1D6
:10103000B1FA81F101F01F0208FA02F10842D3D09F
:1010400031E000BFFFF70EFBA0EB0B0141F288304F
:1010500081427CD896FAA6F0B0FA80F040F04000C9
:10106000B8EB501F02D1D9F8000012E096FAA6F0B2
:10107000B0FA80F040F04000B6EB501F484607D170
:10108000006A06E00010024000004242007000408A
:10109000406A96FAA6F1B1FA81F101F01F0208FA4E
:1010A00002F10842CED1E869B0B3D9F804104E4637
:1010B000C1F38101022974D002284FF080714FF0F2
:1010C000007950460AD091FAA1F1B1FA81F147F8BE
:1010D0002100FFF7C7FA07464D466BE08A4691FAB2
:1010E000A1F1B1FA81F1BB4647F82100FFF7BAFA46
:1010F00080464F4606E000BFFFF7B4FAA0EB0800B9
:10110000642854D897FAA7F0B0FA80F040F0200095
:10111000400902D0306801E061E0706A97FAA7F1F7
:10112000B1FA81F101F01F0104FA01F10842E3D1A3
:10113000286AB0F5803F05D17068A96820F40030B6
:1011400008437060D5E908010843716800E02EE0AB
:1011500021F47411084370609AFAAAF0B0FA80F092
:101160004BF82040FFF77EFA054604E0FFF77AFAD5
:10117000401B64281BD897FAA7F0B0FA80F040F023
:101180002000400901D0306800E0706A97FAA7F1AA
:10119000B1FA81F101F01F0104FA01F10842E5D032
:1011A0001DE01EE0FFF75EFAC01B642802D9032091
:1011B000BDE8F88F95FAA5F0B0FA80F040F0200075
:1011C000400901D0306800E0706A95FAA5F1B1FAE3
:1011D00081F101F01F0104FA01F10842E2D100207F
:1011E000E6E70120E4E74FF0E0210428086903D096
:1011F00020F004000861704740F00400FAE77047EF
:1012000010B5401EB0F1807F01D3012010BD4FF01A
:10121000E02460610F21601700F0A2F90020A061B6
:1012200007202061002010BD10B5FFF7E8FF10BDBA
:10123000704738B504460068016811F0010FC168B5
:1012400001F4807107D031B1016841680091E16B10
:1012500041F00101E1630168C1F34002416901F01D
:1012600001013AB131B1026842680092E26B42F08A
:101270000402E2630268C2F380023AB131B102684B
:1012800042680092E26B42F00202E2630268C2F33B
:10129000C0023AB131B1016841680091E16B41F09F
:1012A0000801E1630168C068C1F3401100F020004B
:1012B00019B110B1204600F0E3F921680868C96847
:1012C000C0F3C01001F0800118B111B1204600F048
:1012D0009BFA21680868CA68C0F3801002F04002D7
:1012E000012590B18AB1CA68204622F04002CA6046
:1012F00094F83910322911D001684A6922F00102AC
:101300004A6180F8395000F0D3F8E06B002804D02F
:1013100084F839502046FFF78BFF38BD222180F832
:101320003910F0E770B5040004D094F839000025B6
:1013300010B106E0012070BD84F83850204600F05E
:1013400021F8022084F839002068C16821F4005196
:10135000C160204600F0E8F92068016921F490415D
:1013600001612068416921F02A0141612068C1685A
:1013700041F40051C160E563012084F83900002088
:1013800070BD000070B5064600681F4986B08842EF
:1013900037D11E48816941F48041816180691C4CCC
:1013A00000F4804004904FF40070009002200190FF
:1013B0000320039069462046FFF772F800252015A8
:1013C000CDE90005694620460295FFF769F8124C01
:1013D000104820601020C4E901058020C4E90305FD
:1013E00040016561C4E906502046FEF7F9FF346309
:1013F0000022114625206662FFF790F92520FFF7AD
:1014000081F906B070BD00000038014000100240B4
:1014100000080140440002407000002070470000B6
:1014200070B5044690F83900012801D0222836D141
:1014300081B37AB394F83800012830D0012084F8C1
:1014400038002162A284E2840025E56394F8390023
:10145000222822D05FF0120084F83900236B114853
:101460009862236B1048D862236B10481863266873
:101470001346321D206BFEF7DBFF21686FF0400042
:1014800008602068416941F08001416184F838506A
:10149000002070BDFFE70120FBE73220DCE70220DF
:1014A000F7E700004716000875160008291600081F
:1014B00070477047094808B5416941F00101416131
:1014C0004069002200F00100009011460E20FFF755
:1014D00025F9BDE808400E20FFF714B900100240BE
:1014E000134800B5816985B041F0100181618169BF
:1014F00001F010010491816941F02001816181694D
:1015000001F020010491816941F004018161806949
:10151000694600F0040004904FF400500090012050
:101520000190022003900348FEF7BAFF05B000BD0A
:1015300000100240001001400848074901604FF4C4
:10154000E1314160002181600C22C160C0E90412D8
:101550008161C161FFF7E6BE003801403000002024
:101560000907090E002806DA00F00F0000F1E0205C
:1015700080F8141D704700F1E02080F800147047D7
:1015800010B5FFF775F8BDE81040FFF74DBE30B558
:101590008FB0012000240090CDE901040225000451
:1015A000CDE907504FF4E01009906846FFF7B6FA0E
:1015B0000520CDE90A056802CDE90C4002210AA800
:1015C0000E94FFF7DDF8FFF71FFA4FF47A71B0FBC6
:1015D000F1F0FFF715FE0420FFF705FE0FB030BD58
:1015E0000D48016841F00101016041680B4A11405A
:1015F000416001680A4A11400160016821F48021BC
:101600000160416821F4FE0141604FF41F018160D7
:101610000449C00308607047001002400000FFF852
:10162000FFFFF6FE08ED00E010B5406A0021C1851D
:10163000C184012180F83910C16B41F01001C163F0
:10164000FFF7F6FD10BD10B50146406A096809684C
:1016500089060CD40021C18401684A6922F0800205
:101660004A610068C16841F04001C16010BDFFF7E8
:101670001FFF10BD10B5406AFFF71BFF10BD000033
:1016800010B590F83910222903D0322901D0022058
:1016900010BD8168B1F5805F11D001690029016832
:1016A0001FD0496801F07F03816A4A1C82620B7077
:1016B000C18D491E0904090CC18518D030E00269AA
:1016C000816A002A0268526805D0D2B20A80816A13
:1016D000491C8162ECE7C2F308020A80816A891C16
:1016E000F7E74A68816A4B1C83620A70E0E7016889
:1016F000CA6822F02002CA6090F83910322911D04D
:101700000168CA6822F48072CA6001684A6922F0DE
:1017100001024A615FF0010180F83910FFF77EFE97
:10172000002010BD1221F7E72DE9F04104460068C2
:101730000169E26821F44051114301612169A06807
:101740000843616908432168CA6841F20C639A43FF
:101750000243CA6020684169A26921F440711143C3
:1017600041612849206864254FF03208884218D129
:10177000FFF77AF900EBC00101EB00106168890006
:10178000B0FBF1F0B0FBF5F6FFF76EF900EBC0012E
:1017900001EB001061688900B0FBF1F7FFF764F915
:1017A00017E0FFF74BF900EBC00101EB0010616897
:1017B0008900B0FBF1F0B0FBF5F6FFF73FF900EB65
:1017C000C00101EB001061688900B0FBF1F7FFF781
:1017D00035F900EBC00101EB001061688900B0FB36
:1017E000F1F0B0FBF5F06FF01801484307EB800112
:1017F00008EB0110B0FBF5F0216866F31F1088605C
:10180000BDE8F0810038014090F83910122903D06A
:10181000322901D0022070478168B1F5805F016AEA
:101820000BD04A1C0262026809785160C18C491EC3
:101830000904090CC1840ED017E009880268C1F3BD
:101840000801516001690029016A02D0491C016246
:10185000ECE7891CFBE70168CA6822F08002CA60D5
:101860000068C16841F04001C1600020704700007D
:101870000148FFF7DEBC00003000002002E008C88D
:10188000121F08C1002AFAD170477047002001E0FA
:1018900001C1121F002AFBD170470000FEF7F0FEC5
:1018A000FFF775FEFFF71CFEFFF704FEFFF744FE8F
:1018B000162208490848FFF7B3FD084E4FF47A7422
:1018C0004FF400552046FEF7DFFD29463046FEF76F
:1018D000C5FEF7E71800002030000020001001408E
:1018E00000000000010203040102030406070809C6
:1018F0001019000800000020300000007C180008CB
:101900004019000830000020780400008C180008FE
:1019100000A24A04000000000000000001020304CD
:10192000060708090000000048616C6C6F204943FD
:10193000482042494E204348454E59490A0D00006F
:04000005080000ED02
:00000001FF
